:100000000C9434000C943E000C943E000C943E0082
:100010000C943E000C943E000C943E000C943E0068
:100020000C943E000C943E000C943E000C943E0058
:100030000C943E000C943E000C943E000C943E0048
:100040000C943E000C943E000C943E000C943E0038
:100050000C943E000C943E000C943E000C943E0028
:100060000C943E000C943E0011241FBECFEFD8E04C
:10007000DEBFCDBF0E9440000C947D000C940000B8
:10008000CF93DF93CDB7DEB784E290E024E230E097
:10009000F90120812260FC01208383E290E022E0CC
:1000A000FC0120830E945500F8CFCF93DF9300D04E
:1000B00000D0CDB7DEB71A82198212C01C821B8213
:1000C00005C08B819C8101969C838B838B819C8155
:1000D00080349640B0F389819A8101969A8389830E
:1000E00089819A81803D974048F300000F900F90DE
:0E00F0000F900F90DF91CF910895F894FFCFFD
:00000001FF
