:100000000C9434000C9451000C9451000C94510049
:100010000C9451000C9451000C9451000C9451001C
:100020000C9451000C9451000C9451000C9451000C
:100030000C9451000C9451000C9451000C945100FC
:100040000C9451000C9451000C9419010C944A0129
:100050000C9451000C9451000C9451000C945100DC
:100060000C9451000C94510011241FBECFEFD8E026
:10007000DEBFCDBF11E0A0E0B1E0EAE5F4E002C0F0
:1000800005900D92A832B107D9F721E0A8E2B1E0BE
:1000900001C01D92AC3AB207E1F70E94F8010C943E
:1000A00017020C940000CF93DF9300D000D0CDB79F
:1000B000DEB71C821B822B813C8128173907A8F4EC
:1000C0001A82198229813A81283E334038F42981E5
:1000D0003A812F5F3F4F3A832983F4CF2B813C81B4
:1000E0002F5F3F4F3C832B83E6CF0F900F900F90F5
:1000F0000F90DF91CF910895CF93DF93EC01899119
:10010000882319F00E940401FACFDF91CF9108955E
:10011000CF93C82FCF7090E024E0959587952A95CE
:10012000E1F78A3014F0895C01C0805D0E9404010F
:10013000CA3014F087E301C080E38C0FCF910C9498
:100140000401EF92FF921F93CF93DF9300D000D072
:10015000CDB7DEB7282F2F702C839C0184E0369515
:1001600027958A95E1F72F702B83892F8F708A83CB
:10017000892F82958F708983CE0101967C0115E0CD
:10018000115059F0F70181917F018A3014F4805D9C
:1001900001C0895C0E940401F3CF0F900F900F9073
:1001A0000F90DF91CF911F91FF90EF9008950F93E3
:1001B0001F93CF9322E025B923B98C01C2E0F80147
:1001C00081918F018823C1F08D3221F4C3B98EEE65
:1001D00092E005C08E3249F4C3B98AEF90E00E94E4
:1001E0005300C3B984E690E004C0803241F788EE42
:1001F00093E00E945300E3CFCF911F910F91089598
:100200000E940601789408950C949E011092C000FB
:1002100087E690E09093C5008093C400E1ECF0E0A5
:1002200088E1808386E08093C2008081806A808339
:1002300008951F920F920FB60F9211242F938F9350
:100240009F93EF93FF9380912A0120912B0190E0DF
:10025000821B910901978F739927892B79F0E0917F
:100260002B01F0E08091C600E45DFE4F8083809119
:100270002B018F5F8F7380932B0102C08091C6008A
:10028000FF91EF919F918F912F910F900FBE0F9043
:100290001F9018951F920F920FB60F9211242F9353
:1002A0008F939F93EF93FF938091290120912801D1
:1002B00090E0821B91098F739927892B79F0E09147
:1002C0002801F0E0E459FE4F80818093C6008091C0
:1002D00028018F5F8F738093280105C08091C10032
:1002E0008F7D8093C100FF91EF919F918F912F910E
:1002F0000F900FBE0F901F90189580912B01909139
:100300002A01891B8F73089580912B0120912A0166
:1003100090E0821B91098F739927892B69F0E091F6
:100320002A01F0E0E45DFE4F808190912A019F5FF9
:100330009F7390932A01089580E008950FB607FEF9
:100340000EC0209128019091290130E0291B31092C
:10035000215031092F733327232B99F30DC020919E
:1003600028019091290130E0291B310921503109E0
:100370002F733327232B61F0E0912901F0E0E4593A
:10038000FE4F8083809129018F5F8F7380932901B5
:100390008091C10080628093C10008951F93CF9324
:1003A000DF93EC0180E011E0180FFE01E80FF11D72
:1003B0008081882321F00E949E01812FF4CFDF915C
:1003C000CF911F9108951F93CF93DF93EC0180E0AD
:1003D00011E0180FFE01E80FF11D8491882321F030
:1003E0000E949E01812FF4CFDF91CF911F9108953C
:1003F000219A0E94000180E091E00E947C008AE046
:100400000E9488008CE191E00E947C008EED90ECCF
:100410000E94A1008CE191E00E947C008FE191E0BC
:100420000E94D7008CED95E00E945300F7CFF8941E
:02043000FFCFFC
:10043200030B443100802500002D00040B443000E2
:10044200802500002D0002060024F400010C6174D6
:080452006D656761333238006B
:10045A0053455234383620485733202D205065747E
:10046A006572204669736368626163680A0D002DCC
:08047A002D2D202D2E2D000078
:00000001FF
